{
  "contractName": "ReturnOnInterest",
  "abi": [
    {
      "constant": true,
      "inputs": [],
      "name": "currUserId",
      "outputs": [
        {
          "internalType": "uint256",
          "name": "",
          "type": "uint256"
        }
      ],
      "payable": false,
      "stateMutability": "view",
      "type": "function"
    },
    {
      "constant": true,
      "inputs": [],
      "name": "totalInvestment",
      "outputs": [
        {
          "internalType": "uint256",
          "name": "",
          "type": "uint256"
        }
      ],
      "payable": false,
      "stateMutability": "view",
      "type": "function"
    },
    {
      "constant": true,
      "inputs": [],
      "name": "totalWithdrawn",
      "outputs": [
        {
          "internalType": "uint256",
          "name": "",
          "type": "uint256"
        }
      ],
      "payable": false,
      "stateMutability": "view",
      "type": "function"
    },
    {
      "constant": false,
      "inputs": [
        {
          "internalType": "uint256",
          "name": "_entryTime",
          "type": "uint256"
        }
      ],
      "name": "Enter",
      "outputs": [],
      "payable": true,
      "stateMutability": "payable",
      "type": "function"
    },
    {
      "constant": false,
      "inputs": [
        {
          "internalType": "address",
          "name": "_refererId",
          "type": "address"
        },
        {
          "internalType": "uint256",
          "name": "_entryTime",
          "type": "uint256"
        }
      ],
      "name": "enterThroughReferals",
      "outputs": [],
      "payable": true,
      "stateMutability": "payable",
      "type": "function"
    },
    {
      "constant": false,
      "inputs": [],
      "name": "sendROI",
      "outputs": [],
      "payable": false,
      "stateMutability": "nonpayable",
      "type": "function"
    },
    {
      "constant": false,
      "inputs": [],
      "name": "withdraw",
      "outputs": [],
      "payable": false,
      "stateMutability": "nonpayable",
      "type": "function"
    },
    {
      "constant": true,
      "inputs": [
        {
          "internalType": "address",
          "name": "_account",
          "type": "address"
        }
      ],
      "name": "getReferals",
      "outputs": [
        {
          "internalType": "uint256",
          "name": "",
          "type": "uint256"
        }
      ],
      "payable": false,
      "stateMutability": "view",
      "type": "function"
    },
    {
      "constant": true,
      "inputs": [
        {
          "internalType": "address",
          "name": "_account",
          "type": "address"
        }
      ],
      "name": "getReferalsIncome",
      "outputs": [
        {
          "internalType": "uint256",
          "name": "",
          "type": "uint256"
        }
      ],
      "payable": false,
      "stateMutability": "view",
      "type": "function"
    },
    {
      "constant": true,
      "inputs": [],
      "name": "getDailyAmount",
      "outputs": [
        {
          "internalType": "uint256",
          "name": "",
          "type": "uint256"
        }
      ],
      "payable": false,
      "stateMutability": "view",
      "type": "function"
    },
    {
      "constant": true,
      "inputs": [
        {
          "internalType": "uint256",
          "name": "_amount",
          "type": "uint256"
        }
      ],
      "name": "getROI",
      "outputs": [
        {
          "internalType": "uint256",
          "name": "",
          "type": "uint256"
        }
      ],
      "payable": false,
      "stateMutability": "pure",
      "type": "function"
    },
    {
      "constant": true,
      "inputs": [
        {
          "internalType": "address",
          "name": "_account",
          "type": "address"
        }
      ],
      "name": "getUserDailyIncome",
      "outputs": [
        {
          "internalType": "uint256",
          "name": "",
          "type": "uint256"
        }
      ],
      "payable": false,
      "stateMutability": "view",
      "type": "function"
    },
    {
      "constant": true,
      "inputs": [
        {
          "internalType": "address",
          "name": "_account",
          "type": "address"
        }
      ],
      "name": "getIncomeWithdrawnToWallet",
      "outputs": [
        {
          "internalType": "uint256",
          "name": "",
          "type": "uint256"
        }
      ],
      "payable": false,
      "stateMutability": "view",
      "type": "function"
    },
    {
      "constant": true,
      "inputs": [],
      "name": "getExpiry",
      "outputs": [
        {
          "internalType": "uint256",
          "name": "",
          "type": "uint256"
        }
      ],
      "payable": false,
      "stateMutability": "view",
      "type": "function"
    }
  ],
  "bytecode": "0x60806040526000805560006001556001600255600060035534801561002357600080fd5b50611667806100336000396000f3fe6080604052600436106100dd5760003560e01c80636c835fd91161007f578063d37e3c6911610059578063d37e3c691461033d578063d69539d7146103a2578063e4ff1bc9146103cd578063f61c266b1461041b576100dd565b80636c835fd914610296578063b2229347146102ad578063bdfbab66146102d8576100dd565b80633ccfd60b116100bb5780633ccfd60b146101d7578063469a75bf146101ee57806349df34c01461023d5780634b3197131461026b576100dd565b806310ea13df146100e257806334c626da1461010d578063397edb7f14610172575b600080fd5b3480156100ee57600080fd5b506100f7610446565b6040518082815260200191505060405180910390f35b34801561011957600080fd5b5061015c6004803603602081101561013057600080fd5b81019080803573ffffffffffffffffffffffffffffffffffffffff16906020019092919050505061044c565b6040518082815260200191505060405180910390f35b34801561017e57600080fd5b506101c16004803603602081101561019557600080fd5b81019080803573ffffffffffffffffffffffffffffffffffffffff1690602001909291905050506104aa565b6040518082815260200191505060405180910390f35b3480156101e357600080fd5b506101ec6104f6565b005b3480156101fa57600080fd5b506102276004803603602081101561021157600080fd5b81019080803590602001909291905050506106d1565b6040518082815260200191505060405180910390f35b6102696004803603602081101561025357600080fd5b81019080803590602001909291905050506106e8565b005b34801561027757600080fd5b50610280610a2f565b6040518082815260200191505060405180910390f35b3480156102a257600080fd5b506102ab610a35565b005b3480156102b957600080fd5b506102c2610d29565b6040518082815260200191505060405180910390f35b3480156102e457600080fd5b50610327600480360360208110156102fb57600080fd5b81019080803573ffffffffffffffffffffffffffffffffffffffff169060200190929190505050610d2f565b6040518082815260200191505060405180910390f35b34801561034957600080fd5b5061038c6004803603602081101561036057600080fd5b81019080803573ffffffffffffffffffffffffffffffffffffffff169060200190929190505050610d7b565b6040518082815260200191505060405180910390f35b3480156103ae57600080fd5b506103b7610dc7565b6040518082815260200191505060405180910390f35b610419600480360360408110156103e357600080fd5b81019080803573ffffffffffffffffffffffffffffffffffffffff16906020019092919080359060200190929190505050610e76565b005b34801561042757600080fd5b50610430611576565b6040518082815260200191505060405180910390f35b60035481565b600080600460008473ffffffffffffffffffffffffffffffffffffffff1673ffffffffffffffffffffffffffffffffffffffff168152602001908152602001600020600301549050606481600502816104a157fe5b04915050919050565b6000600460008373ffffffffffffffffffffffffffffffffffffffff1673ffffffffffffffffffffffffffffffffffffffff168152602001908152602001600020600701549050919050565b6000600460003373ffffffffffffffffffffffffffffffffffffffff1673ffffffffffffffffffffffffffffffffffffffff16815260200190815260200160002060070154600460003373ffffffffffffffffffffffffffffffffffffffff1673ffffffffffffffffffffffffffffffffffffffff16815260200190815260200160002060040154019050806001600082825401925050819055503373ffffffffffffffffffffffffffffffffffffffff1673ffffffffffffffffffffffffffffffffffffffff166108fc829081150290604051600060405180830381858888f193505050501580156105ed573d6000803e3d6000fd5b506000600460003373ffffffffffffffffffffffffffffffffffffffff1673ffffffffffffffffffffffffffffffffffffffff1681526020019081526020016000206007018190555080600460003373ffffffffffffffffffffffffffffffffffffffff1673ffffffffffffffffffffffffffffffffffffffff168152602001908152602001600020600901600082825401925050819055506000600460003373ffffffffffffffffffffffffffffffffffffffff1673ffffffffffffffffffffffffffffffffffffffff1681526020019081526020016000206004018190555050565b6000606482600502816106e057fe5b049050919050565b60001515600460003373ffffffffffffffffffffffffffffffffffffffff1673ffffffffffffffffffffffffffffffffffffffff16815260200190815260200160002060000160009054906101000a900460ff161515146107b1576040517f08c379a00000000000000000000000000000000000000000000000000000000081526004018080602001828103825260128152602001807f7573657220616c7265616479206578697374000000000000000000000000000081525060200191505060405180910390fd5b600034905067016345785d8a0000811015610834576040517f08c379a00000000000000000000000000000000000000000000000000000000081526004018080602001828103825260148152602001807f496e73756666696369656e742062616c616e636500000000000000000000000081525060200191505060405180910390fd5b806003600082825401925050819055506001600080828254019250508190555061085c6115c0565b604051806101600160405280600115158152602001600054815260200184815260200183815260200160008152602001620d2f008501815260200160008152602001600081526020016000815260200160008152602001600073ffffffffffffffffffffffffffffffffffffffff16815250905080600460003373ffffffffffffffffffffffffffffffffffffffff1673ffffffffffffffffffffffffffffffffffffffff16815260200190815260200160002060008201518160000160006101000a81548160ff0219169083151502179055506020820151816001015560408201518160020155606082015181600301556080820151816004015560a0820151816005015560c0820151816006015560e082015181600701556101008201518160080155610120820151816009015561014082015181600a0160006101000a81548173ffffffffffffffffffffffffffffffffffffffff021916908373ffffffffffffffffffffffffffffffffffffffff16021790555090505033600560008054815260200190815260200160002060006101000a81548173ffffffffffffffffffffffffffffffffffffffff021916908373ffffffffffffffffffffffffffffffffffffffff160217905550505050565b60015481565b6000600190505b6000548111610d2657610ac3600460006005600085815260200190815260200160002060009054906101000a900473ffffffffffffffffffffffffffffffffffffffff1673ffffffffffffffffffffffffffffffffffffffff1673ffffffffffffffffffffffffffffffffffffffff168152602001908152602001600020600301546106d1565b600460006005600085815260200190815260200160002060009054906101000a900473ffffffffffffffffffffffffffffffffffffffff1673ffffffffffffffffffffffffffffffffffffffff1673ffffffffffffffffffffffffffffffffffffffff1681526020019081526020016000206004016000828254019250508190555062015180600460006005600085815260200190815260200160002060009054906101000a900473ffffffffffffffffffffffffffffffffffffffff1673ffffffffffffffffffffffffffffffffffffffff1673ffffffffffffffffffffffffffffffffffffffff16815260200190815260200160002060050160008282540392505081905550600460006005600084815260200190815260200160002060009054906101000a900473ffffffffffffffffffffffffffffffffffffffff1673ffffffffffffffffffffffffffffffffffffffff1673ffffffffffffffffffffffffffffffffffffffff16815260200190815260200160002060020154600460006005600085815260200190815260200160002060009054906101000a900473ffffffffffffffffffffffffffffffffffffffff1673ffffffffffffffffffffffffffffffffffffffff1673ffffffffffffffffffffffffffffffffffffffff168152602001908152602001600020600501541415610d19576000600460003373ffffffffffffffffffffffffffffffffffffffff1673ffffffffffffffffffffffffffffffffffffffff16815260200190815260200160002060000160006101000a81548160ff0219169083151502179055505b8080600101915050610a3c565b50565b60005481565b6000600460008373ffffffffffffffffffffffffffffffffffffffff1673ffffffffffffffffffffffffffffffffffffffff168152602001908152602001600020600601549050919050565b6000600460008373ffffffffffffffffffffffffffffffffffffffff1673ffffffffffffffffffffffffffffffffffffffff168152602001908152602001600020600901549050919050565b60008060009050600060025490505b6000548111610e6e57610e5d600460006005600085815260200190815260200160002060009054906101000a900473ffffffffffffffffffffffffffffffffffffffff1673ffffffffffffffffffffffffffffffffffffffff1673ffffffffffffffffffffffffffffffffffffffff168152602001908152602001600020600301546106d1565b820191508080600101915050610dd6565b508091505090565b60001515600460003373ffffffffffffffffffffffffffffffffffffffff1673ffffffffffffffffffffffffffffffffffffffff16815260200190815260200160002060000160009054906101000a900460ff16151514610f3f576040517f08c379a00000000000000000000000000000000000000000000000000000000081526004018080602001828103825260128152602001807f7573657220616c7265616479206578697374000000000000000000000000000081525060200191505060405180910390fd5b6000349050600460008473ffffffffffffffffffffffffffffffffffffffff1673ffffffffffffffffffffffffffffffffffffffff16815260200190815260200160002060000160009054906101000a900460ff16611006576040517f08c379a00000000000000000000000000000000000000000000000000000000081526004018080602001828103825260148152602001807f696e636f7272656374207265666572616c20696400000000000000000000000081525060200191505060405180910390fd5b67016345785d8a0000811015611084576040517f08c379a00000000000000000000000000000000000000000000000000000000081526004018080602001828103825260148152602001807f496e73756666696369656e742062616c616e636500000000000000000000000081525060200191505060405180910390fd5b80600360008282540192505081905550600160008082825401925050819055506110ac6115c0565b604051806101600160405280600115158152602001600054815260200184815260200183815260200160008152602001620d2f0085018152602001600081526020016000815260200160008152602001600081526020018573ffffffffffffffffffffffffffffffffffffffff16815250905080600460003373ffffffffffffffffffffffffffffffffffffffff1673ffffffffffffffffffffffffffffffffffffffff16815260200190815260200160002060008201518160000160006101000a81548160ff0219169083151502179055506020820151816001015560408201518160020155606082015181600301556080820151816004015560a0820151816005015560c0820151816006015560e082015181600701556101008201518160080155610120820151816009015561014082015181600a0160006101000a81548173ffffffffffffffffffffffffffffffffffffffff021916908373ffffffffffffffffffffffffffffffffffffffff16021790555090505033600560008054815260200190815260200160002060006101000a81548173ffffffffffffffffffffffffffffffffffffffff021916908373ffffffffffffffffffffffffffffffffffffffff1602179055506000600460008673ffffffffffffffffffffffffffffffffffffffff1673ffffffffffffffffffffffffffffffffffffffff168152602001908152602001600020600601541415611377576064600a8302816112d157fe5b04600460008673ffffffffffffffffffffffffffffffffffffffff1673ffffffffffffffffffffffffffffffffffffffff168152602001908152602001600020600701600082825401925050819055506001600460008673ffffffffffffffffffffffffffffffffffffffff1673ffffffffffffffffffffffffffffffffffffffff16815260200190815260200160002060060160008282540192505081905550611570565b6001600460008673ffffffffffffffffffffffffffffffffffffffff1673ffffffffffffffffffffffffffffffffffffffff16815260200190815260200160002060060154141561147557606460148302816113cf57fe5b04600460008673ffffffffffffffffffffffffffffffffffffffff1673ffffffffffffffffffffffffffffffffffffffff168152602001908152602001600020600701600082825401925050819055506001600460008673ffffffffffffffffffffffffffffffffffffffff1673ffffffffffffffffffffffffffffffffffffffff1681526020019081526020016000206006016000828254019250508190555061156f565b6002600460008673ffffffffffffffffffffffffffffffffffffffff1673ffffffffffffffffffffffffffffffffffffffff168152602001908152602001600020600601541061156e576064601e8302816114cc57fe5b04600460008673ffffffffffffffffffffffffffffffffffffffff1673ffffffffffffffffffffffffffffffffffffffff168152602001908152602001600020600701600082825401925050819055506001600460008673ffffffffffffffffffffffffffffffffffffffff1673ffffffffffffffffffffffffffffffffffffffff168152602001908152602001600020600601600082825401925050819055505b5b5b50505050565b6000600460003373ffffffffffffffffffffffffffffffffffffffff1673ffffffffffffffffffffffffffffffffffffffff16815260200190815260200160002060050154905090565b604051806101600160405280600015158152602001600081526020016000815260200160008152602001600081526020016000815260200160008152602001600081526020016000815260200160008152602001600073ffffffffffffffffffffffffffffffffffffffff168152509056fea265627a7a7231582015b1da0bcbfc839e0216dce6f14125e082ae3fdf5072bed7ed70a7132ab6233664736f6c63430005100032",
  "source": "// SPDX-License-Identifier:UNLICENSED\npragma solidity >=0.4.21 <0.7.0;\n\ncontract ReturnOnInterest {\n    uint256 public currUserId = 0;\n    uint256 public totalWithdrawn = 0;\n    uint256 internal activeUserId = 1;\n    uint256 public totalInvestment = 0;\n    struct User {\n        bool isExist;\n        uint256 id;\n        uint256 entryTime;\n        uint256 investment;\n        uint256 balanceReceived;\n        uint256 expired;\n        uint256 referals;\n        uint256 referalAmount;\n        uint256 dailyAmount;\n        uint256 incomeWithdrawn;\n        address referedBy;\n    }\n\n    mapping(address => User) internal users;\n    mapping(uint256 => address) internal userlist;\n\n    //enter by investing amount, get entryTime and expiry time through js\n    function Enter(uint256 _entryTime) public payable {\n        require(users[msg.sender].isExist == false, \"user already exist\");\n        uint256 _amount = msg.value;\n        require(_amount >= 0.1 ether, \"Insufficient balance\");\n        totalInvestment += _amount;\n        currUserId += 1;\n        User memory user = User({\n            isExist: true,\n            id: currUserId,\n            entryTime: _entryTime,\n            investment: _amount,\n            balanceReceived: 0,\n            expired: _entryTime + (10 * 1 days),\n            referals: 0,\n            referalAmount: 0,\n            dailyAmount: 0,\n            incomeWithdrawn: 0,\n            referedBy: address(0)\n        });\n\n        users[msg.sender] = user;\n        userlist[currUserId] = msg.sender;\n    }\n\n    function enterThroughReferals(address _refererId, uint256 _entryTime)\n        public\n        payable\n    {\n        require(users[msg.sender].isExist == false, \"user already exist\");\n        uint256 _amount = msg.value;\n        require(users[_refererId].isExist, \"incorrect referal id\");\n        require(_amount >= 0.1 ether, \"Insufficient balance\");\n        totalInvestment += _amount;\n        currUserId += 1;\n        User memory user = User({\n            isExist: true,\n            id: currUserId,\n            entryTime: _entryTime,\n            investment: _amount,\n            balanceReceived: 0,\n            expired: _entryTime + (10 * 1 days),\n            referals: 0,\n            referalAmount: 0,\n            dailyAmount: 0,\n            incomeWithdrawn: 0,\n            referedBy: _refererId\n        });\n\n        users[msg.sender] = user;\n        userlist[currUserId] = msg.sender;\n\n        if (users[_refererId].referals == 0) {\n            users[_refererId].referalAmount += (_amount * 10) / 100;\n            users[_refererId].referals += 1;\n        } else if (users[_refererId].referals == 1) {\n            users[_refererId].referalAmount += (_amount * 20) / 100;\n            users[_refererId].referals += 1;\n        } else if (users[_refererId].referals >= 2) {\n            users[_refererId].referalAmount += (_amount * 30) / 100;\n            users[_refererId].referals += 1;\n        }\n    }\n\n    function sendROI() public {\n        for (uint256 i = 1; i <= currUserId; i++) {\n            users[userlist[i]].balanceReceived += getROI(\n                users[userlist[i]].investment\n            );\n            users[userlist[i]].expired -= 1 days;\n            if (users[userlist[i]].expired == users[userlist[i]].entryTime)\n                users[msg.sender].isExist = false;\n        }\n    }\n\n    function withdraw() public {\n        uint256 _amount = users[msg.sender].balanceReceived +\n            users[msg.sender].referalAmount;\n        totalWithdrawn += _amount;\n        address(uint256(msg.sender)).transfer(_amount);\n        users[msg.sender].referalAmount = 0;\n        users[msg.sender].incomeWithdrawn += _amount;\n        users[msg.sender].balanceReceived = 0;\n    }\n\n    function getReferals(address _account) public view returns (uint256) {\n        return users[_account].referals;\n    }\n\n    function getReferalsIncome(address _account) public view returns (uint256) {\n        return users[_account].referalAmount;\n    }\n\n    function getDailyAmount() public view returns (uint256) {\n        uint256 dailyAmount = 0;\n        for (uint256 i = activeUserId; i <= currUserId; i++) {\n            dailyAmount += getROI(users[userlist[i]].investment);\n        }\n        return dailyAmount;\n    }\n\n    function getROI(uint256 _amount) public pure returns (uint256) {\n        return (5 * _amount) / 100;\n    }\n\n    function getUserDailyIncome(address _account)\n        public\n        view\n        returns (uint256)\n    {\n        uint256 _amount = users[_account].investment;\n        return (5 * _amount) / 100;\n    }\n\n    function getIncomeWithdrawnToWallet(address _account)\n        public\n        view\n        returns (uint256)\n    {\n        return users[_account].incomeWithdrawn;\n    }\n\n    function getExpiry() public view returns(uint256){\n        return users[msg.sender].expired;\n    }\n}\n",
  "sourcePath": "/home/neha/ROI/src/contracts/ROI.sol",
  "compiler": {
    "name": "solc",
    "version": "0.5.16+commit.9c3226ce.Emscripten.clang"
  },
  "schemaVersion": "3.1.0",
  "updatedAt": "2020-06-29T05:50:10.120Z",
  "networkType": "ethereum",
  "devdoc": {
    "methods": {}
  },
  "userdoc": {
    "methods": {}
  }
}