{
  "contractName": "ReturnOnInterest",
  "abi": [
    {
      "constant": true,
      "inputs": [],
      "name": "currUserId",
      "outputs": [
        {
          "internalType": "uint256",
          "name": "",
          "type": "uint256"
        }
      ],
      "payable": false,
      "stateMutability": "view",
      "type": "function"
    },
    {
      "constant": true,
      "inputs": [],
      "name": "totalInvestment",
      "outputs": [
        {
          "internalType": "uint256",
          "name": "",
          "type": "uint256"
        }
      ],
      "payable": false,
      "stateMutability": "view",
      "type": "function"
    },
    {
      "constant": true,
      "inputs": [],
      "name": "totalWithdrawn",
      "outputs": [
        {
          "internalType": "uint256",
          "name": "",
          "type": "uint256"
        }
      ],
      "payable": false,
      "stateMutability": "view",
      "type": "function"
    },
    {
      "constant": false,
      "inputs": [
        {
          "internalType": "uint256",
          "name": "_entryTime",
          "type": "uint256"
        }
      ],
      "name": "Enter",
      "outputs": [],
      "payable": true,
      "stateMutability": "payable",
      "type": "function"
    },
    {
      "constant": false,
      "inputs": [
        {
          "internalType": "address",
          "name": "_refererId",
          "type": "address"
        },
        {
          "internalType": "uint256",
          "name": "_entryTime",
          "type": "uint256"
        }
      ],
      "name": "enterThroughReferals",
      "outputs": [],
      "payable": true,
      "stateMutability": "payable",
      "type": "function"
    },
    {
      "constant": false,
      "inputs": [],
      "name": "sendROI",
      "outputs": [],
      "payable": false,
      "stateMutability": "nonpayable",
      "type": "function"
    },
    {
      "constant": false,
      "inputs": [],
      "name": "withdraw",
      "outputs": [],
      "payable": false,
      "stateMutability": "nonpayable",
      "type": "function"
    },
    {
      "constant": true,
      "inputs": [
        {
          "internalType": "address",
          "name": "_account",
          "type": "address"
        }
      ],
      "name": "getReferals",
      "outputs": [
        {
          "internalType": "uint256",
          "name": "",
          "type": "uint256"
        }
      ],
      "payable": false,
      "stateMutability": "view",
      "type": "function"
    },
    {
      "constant": true,
      "inputs": [
        {
          "internalType": "address",
          "name": "_account",
          "type": "address"
        }
      ],
      "name": "getReferalsIncome",
      "outputs": [
        {
          "internalType": "uint256",
          "name": "",
          "type": "uint256"
        }
      ],
      "payable": false,
      "stateMutability": "view",
      "type": "function"
    },
    {
      "constant": true,
      "inputs": [],
      "name": "getDailyAmount",
      "outputs": [
        {
          "internalType": "uint256",
          "name": "",
          "type": "uint256"
        }
      ],
      "payable": false,
      "stateMutability": "view",
      "type": "function"
    },
    {
      "constant": true,
      "inputs": [
        {
          "internalType": "uint256",
          "name": "_amount",
          "type": "uint256"
        }
      ],
      "name": "getROI",
      "outputs": [
        {
          "internalType": "uint256",
          "name": "",
          "type": "uint256"
        }
      ],
      "payable": false,
      "stateMutability": "pure",
      "type": "function"
    },
    {
      "constant": true,
      "inputs": [
        {
          "internalType": "address",
          "name": "_account",
          "type": "address"
        }
      ],
      "name": "getUserDailyIncome",
      "outputs": [
        {
          "internalType": "uint256",
          "name": "",
          "type": "uint256"
        }
      ],
      "payable": false,
      "stateMutability": "view",
      "type": "function"
    },
    {
      "constant": true,
      "inputs": [],
      "name": "getTotalInvestment",
      "outputs": [
        {
          "internalType": "uint256",
          "name": "",
          "type": "uint256"
        }
      ],
      "payable": false,
      "stateMutability": "view",
      "type": "function"
    },
    {
      "constant": true,
      "inputs": [],
      "name": "getTotalWithdrawnAmount",
      "outputs": [
        {
          "internalType": "uint256",
          "name": "",
          "type": "uint256"
        }
      ],
      "payable": false,
      "stateMutability": "view",
      "type": "function"
    },
    {
      "constant": true,
      "inputs": [
        {
          "internalType": "address",
          "name": "_account",
          "type": "address"
        }
      ],
      "name": "getIncomeWithdrawnToWallet",
      "outputs": [
        {
          "internalType": "uint256",
          "name": "",
          "type": "uint256"
        }
      ],
      "payable": false,
      "stateMutability": "view",
      "type": "function"
    }
  ],
  "bytecode": "0x60806040526000805560006001556001600255600060035534801561002357600080fd5b506115bf806100336000396000f3fe6080604052600436106100e85760003560e01c806355f2324d1161008a578063d37e3c6911610059578063d37e3c6914610373578063d69539d7146103d8578063e4ff1bc914610403578063f9cb1b4814610451576100e8565b806355f2324d146102a15780636c835fd9146102cc578063b2229347146102e3578063bdfbab661461030e576100e8565b80633ccfd60b116100c65780633ccfd60b146101e2578063469a75bf146101f957806349df34c0146102485780634b31971314610276576100e8565b806310ea13df146100ed57806334c626da14610118578063397edb7f1461017d575b600080fd5b3480156100f957600080fd5b5061010261047c565b6040518082815260200191505060405180910390f35b34801561012457600080fd5b506101676004803603602081101561013b57600080fd5b81019080803573ffffffffffffffffffffffffffffffffffffffff169060200190929190505050610482565b6040518082815260200191505060405180910390f35b34801561018957600080fd5b506101cc600480360360208110156101a057600080fd5b81019080803573ffffffffffffffffffffffffffffffffffffffff1690602001909291905050506104e0565b6040518082815260200191505060405180910390f35b3480156101ee57600080fd5b506101f761052c565b005b34801561020557600080fd5b506102326004803603602081101561021c57600080fd5b8101908080359060200190929190505050610707565b6040518082815260200191505060405180910390f35b6102746004803603602081101561025e57600080fd5b810190808035906020019092919050505061071e565b005b34801561028257600080fd5b5061028b610a60565b6040518082815260200191505060405180910390f35b3480156102ad57600080fd5b506102b6610a66565b6040518082815260200191505060405180910390f35b3480156102d857600080fd5b506102e1610a70565b005b3480156102ef57600080fd5b506102f8610cc6565b6040518082815260200191505060405180910390f35b34801561031a57600080fd5b5061035d6004803603602081101561033157600080fd5b81019080803573ffffffffffffffffffffffffffffffffffffffff169060200190929190505050610ccc565b6040518082815260200191505060405180910390f35b34801561037f57600080fd5b506103c26004803603602081101561039657600080fd5b81019080803573ffffffffffffffffffffffffffffffffffffffff169060200190929190505050610d18565b6040518082815260200191505060405180910390f35b3480156103e457600080fd5b506103ed610d64565b6040518082815260200191505060405180910390f35b61044f6004803603604081101561041957600080fd5b81019080803573ffffffffffffffffffffffffffffffffffffffff16906020019092919080359060200190929190505050610e13565b005b34801561045d57600080fd5b5061046661150e565b6040518082815260200191505060405180910390f35b60035481565b600080600460008473ffffffffffffffffffffffffffffffffffffffff1673ffffffffffffffffffffffffffffffffffffffff168152602001908152602001600020600301549050606481600502816104d757fe5b04915050919050565b6000600460008373ffffffffffffffffffffffffffffffffffffffff1673ffffffffffffffffffffffffffffffffffffffff168152602001908152602001600020600701549050919050565b6000600460003373ffffffffffffffffffffffffffffffffffffffff1673ffffffffffffffffffffffffffffffffffffffff16815260200190815260200160002060070154600460003373ffffffffffffffffffffffffffffffffffffffff1673ffffffffffffffffffffffffffffffffffffffff16815260200190815260200160002060040154019050806001600082825401925050819055503373ffffffffffffffffffffffffffffffffffffffff1673ffffffffffffffffffffffffffffffffffffffff166108fc829081150290604051600060405180830381858888f19350505050158015610623573d6000803e3d6000fd5b506000600460003373ffffffffffffffffffffffffffffffffffffffff1673ffffffffffffffffffffffffffffffffffffffff1681526020019081526020016000206007018190555080600460003373ffffffffffffffffffffffffffffffffffffffff1673ffffffffffffffffffffffffffffffffffffffff168152602001908152602001600020600901600082825401925050819055506000600460003373ffffffffffffffffffffffffffffffffffffffff1673ffffffffffffffffffffffffffffffffffffffff1681526020019081526020016000206004018190555050565b60006064826005028161071657fe5b049050919050565b60001515600460003373ffffffffffffffffffffffffffffffffffffffff1673ffffffffffffffffffffffffffffffffffffffff16815260200190815260200160002060000160009054906101000a900460ff161515146107e7576040517f08c379a00000000000000000000000000000000000000000000000000000000081526004018080602001828103825260128152602001807f7573657220616c7265616479206578697374000000000000000000000000000081525060200191505060405180910390fd5b600034905067016345785d8a000081101561086a576040517f08c379a00000000000000000000000000000000000000000000000000000000081526004018080602001828103825260148152602001807f496e73756666696369656e742062616c616e636500000000000000000000000081525060200191505060405180910390fd5b8060036000828254019250508190555060016000808282540192505081905550610892611518565b60405180610160016040528060011515815260200160005481526020018481526020018381526020016000815260200184815260200160008152602001600081526020016000815260200160008152602001600073ffffffffffffffffffffffffffffffffffffffff16815250905080600460003373ffffffffffffffffffffffffffffffffffffffff1673ffffffffffffffffffffffffffffffffffffffff16815260200190815260200160002060008201518160000160006101000a81548160ff0219169083151502179055506020820151816001015560408201518160020155606082015181600301556080820151816004015560a0820151816005015560c0820151816006015560e082015181600701556101008201518160080155610120820151816009015561014082015181600a0160006101000a81548173ffffffffffffffffffffffffffffffffffffffff021916908373ffffffffffffffffffffffffffffffffffffffff16021790555090505033600560008054815260200190815260200160002060006101000a81548173ffffffffffffffffffffffffffffffffffffffff021916908373ffffffffffffffffffffffffffffffffffffffff160217905550505050565b60015481565b6000600154905090565b600460003373ffffffffffffffffffffffffffffffffffffffff1673ffffffffffffffffffffffffffffffffffffffff16815260200190815260200160002060000160009054906101000a900460ff16610b32576040517f08c379a000000000000000000000000000000000000000000000000000000000815260040180806020018281038252601b8152602001807f796f75727320696e766573746d656e742069732065787069726564000000000081525060200191505060405180910390fd5b610b7d600460003373ffffffffffffffffffffffffffffffffffffffff1673ffffffffffffffffffffffffffffffffffffffff16815260200190815260200160002060030154610707565b600460003373ffffffffffffffffffffffffffffffffffffffff1673ffffffffffffffffffffffffffffffffffffffff168152602001908152602001600020600401600082825401925050819055506001600460003373ffffffffffffffffffffffffffffffffffffffff1673ffffffffffffffffffffffffffffffffffffffff168152602001908152602001600020600501600082825403925050819055506000600460003373ffffffffffffffffffffffffffffffffffffffff1673ffffffffffffffffffffffffffffffffffffffff168152602001908152602001600020600501541415610cc4576000600460003373ffffffffffffffffffffffffffffffffffffffff1673ffffffffffffffffffffffffffffffffffffffff16815260200190815260200160002060000160006101000a81548160ff0219169083151502179055505b565b60005481565b6000600460008373ffffffffffffffffffffffffffffffffffffffff1673ffffffffffffffffffffffffffffffffffffffff168152602001908152602001600020600601549050919050565b6000600460008373ffffffffffffffffffffffffffffffffffffffff1673ffffffffffffffffffffffffffffffffffffffff168152602001908152602001600020600901549050919050565b60008060009050600060025490505b6000548111610e0b57610dfa600460006005600085815260200190815260200160002060009054906101000a900473ffffffffffffffffffffffffffffffffffffffff1673ffffffffffffffffffffffffffffffffffffffff1673ffffffffffffffffffffffffffffffffffffffff16815260200190815260200160002060030154610707565b820191508080600101915050610d73565b508091505090565b60001515600460003373ffffffffffffffffffffffffffffffffffffffff1673ffffffffffffffffffffffffffffffffffffffff16815260200190815260200160002060000160009054906101000a900460ff16151514610edc576040517f08c379a00000000000000000000000000000000000000000000000000000000081526004018080602001828103825260128152602001807f7573657220616c7265616479206578697374000000000000000000000000000081525060200191505060405180910390fd5b6000349050600460008473ffffffffffffffffffffffffffffffffffffffff1673ffffffffffffffffffffffffffffffffffffffff16815260200190815260200160002060000160009054906101000a900460ff16610fa3576040517f08c379a00000000000000000000000000000000000000000000000000000000081526004018080602001828103825260148152602001807f696e636f7272656374207265666572616c20696400000000000000000000000081525060200191505060405180910390fd5b67016345785d8a0000811015611021576040517f08c379a00000000000000000000000000000000000000000000000000000000081526004018080602001828103825260148152602001807f496e73756666696369656e742062616c616e636500000000000000000000000081525060200191505060405180910390fd5b8060036000828254019250508190555060016000808282540192505081905550611049611518565b604051806101600160405280600115158152602001600054815260200184815260200183815260200160008152602001848152602001600081526020016000815260200160008152602001600081526020018573ffffffffffffffffffffffffffffffffffffffff16815250905080600460003373ffffffffffffffffffffffffffffffffffffffff1673ffffffffffffffffffffffffffffffffffffffff16815260200190815260200160002060008201518160000160006101000a81548160ff0219169083151502179055506020820151816001015560408201518160020155606082015181600301556080820151816004015560a0820151816005015560c0820151816006015560e082015181600701556101008201518160080155610120820151816009015561014082015181600a0160006101000a81548173ffffffffffffffffffffffffffffffffffffffff021916908373ffffffffffffffffffffffffffffffffffffffff16021790555090505033600560008054815260200190815260200160002060006101000a81548173ffffffffffffffffffffffffffffffffffffffff021916908373ffffffffffffffffffffffffffffffffffffffff1602179055506000600460008673ffffffffffffffffffffffffffffffffffffffff1673ffffffffffffffffffffffffffffffffffffffff16815260200190815260200160002060060154141561130f576064600a83028161126957fe5b04600460008673ffffffffffffffffffffffffffffffffffffffff1673ffffffffffffffffffffffffffffffffffffffff168152602001908152602001600020600701600082825401925050819055506001600460008673ffffffffffffffffffffffffffffffffffffffff1673ffffffffffffffffffffffffffffffffffffffff16815260200190815260200160002060060160008282540192505081905550611508565b6001600460008673ffffffffffffffffffffffffffffffffffffffff1673ffffffffffffffffffffffffffffffffffffffff16815260200190815260200160002060060154141561140d576064601483028161136757fe5b04600460008673ffffffffffffffffffffffffffffffffffffffff1673ffffffffffffffffffffffffffffffffffffffff168152602001908152602001600020600701600082825401925050819055506001600460008673ffffffffffffffffffffffffffffffffffffffff1673ffffffffffffffffffffffffffffffffffffffff16815260200190815260200160002060060160008282540192505081905550611507565b6002600460008673ffffffffffffffffffffffffffffffffffffffff1673ffffffffffffffffffffffffffffffffffffffff1681526020019081526020016000206006015410611506576064601e83028161146457fe5b04600460008673ffffffffffffffffffffffffffffffffffffffff1673ffffffffffffffffffffffffffffffffffffffff168152602001908152602001600020600701600082825401925050819055506001600460008673ffffffffffffffffffffffffffffffffffffffff1673ffffffffffffffffffffffffffffffffffffffff168152602001908152602001600020600601600082825401925050819055505b5b5b50505050565b6000600354905090565b604051806101600160405280600015158152602001600081526020016000815260200160008152602001600081526020016000815260200160008152602001600081526020016000815260200160008152602001600073ffffffffffffffffffffffffffffffffffffffff168152509056fea265627a7a72315820ad5b87176228a3087cba8b786f72f57aa2334890bd7753c9994e5a22fe5ba8e464736f6c63430005100032",
  "source": "// SPDX-License-Identifier:UNLICENSED\npragma solidity >=0.4.21 <0.7.0;\n\ncontract ReturnOnInterest {\n    uint256 public currUserId = 0;\n    uint256 public totalWithdrawn = 0;\n    uint256 internal activeUserId = 1;\n    uint256 public totalInvestment=0;\n    struct User {\n        bool isExist;\n        uint256 id;\n        uint256 entryTime;\n        uint256 investment;\n        uint256 balanceReceived;\n        uint256 expired;\n        uint256 referals;\n        uint256 referalAmount;\n        uint256 dailyAmount;\n        uint256 incomeWithdrawn;\n        address referedBy;\n    }\n\n    mapping(address => User) internal users;\n    mapping(uint256 => address) internal userlist;\n\n    //enter by investing amount, get entryTime and expiry time through js\n    function Enter(uint256 _entryTime) public payable {\n        require(users[msg.sender].isExist == false, \"user already exist\");\n        uint256 _amount = msg.value;\n        require(_amount >= 0.1 ether, \"Insufficient balance\");\n        totalInvestment+=_amount;\n        currUserId += 1;\n        User memory user = User({\n            isExist: true,\n            id: currUserId,\n            entryTime: _entryTime,\n            investment: _amount,\n            balanceReceived: 0,\n            expired: _entryTime,\n            referals: 0,\n            referalAmount: 0,\n            dailyAmount: 0,\n            incomeWithdrawn: 0,\n            referedBy: address(0)\n        });\n\n        users[msg.sender] = user;\n        userlist[currUserId] = msg.sender;\n    }\n\n    function enterThroughReferals(address _refererId, uint256 _entryTime)\n        public\n        payable\n    {\n        require(users[msg.sender].isExist == false, \"user already exist\");\n        uint256 _amount = msg.value;\n        require(users[_refererId].isExist, \"incorrect referal id\");\n        require(_amount >= 0.1 ether, \"Insufficient balance\");\n        totalInvestment+=_amount;\n        currUserId += 1;\n        User memory user = User({\n            isExist: true,\n            id: currUserId,\n            entryTime: _entryTime,\n            investment: _amount,\n            balanceReceived: 0,\n            expired: _entryTime,\n            referals: 0,\n            referalAmount: 0,\n            dailyAmount: 0,\n            incomeWithdrawn: 0,\n            referedBy: _refererId\n        });\n\n        users[msg.sender] = user;\n        userlist[currUserId] = msg.sender;\n\n        if (users[_refererId].referals == 0) {\n            users[_refererId].referalAmount += (_amount * 10) / 100;\n            users[_refererId].referals += 1;\n        } else if (users[_refererId].referals == 1) {\n            users[_refererId].referalAmount += (_amount * 20) / 100;\n            users[_refererId].referals += 1;\n        } else if (users[_refererId].referals >= 2) {\n            users[_refererId].referalAmount += (_amount * 30) / 100;\n            users[_refererId].referals += 1;\n        }\n    }\n\n    function sendROI() public {\n        require(users[msg.sender].isExist, \"yours investment is expired\");\n        users[msg.sender].balanceReceived += getROI(\n            users[msg.sender].investment\n        );\n        users[msg.sender].expired -= 1;\n        if (users[msg.sender].expired == 0) users[msg.sender].isExist = false;\n    }\n\n    function withdraw() public {\n        uint256 _amount = users[msg.sender].balanceReceived +\n            users[msg.sender].referalAmount;\n        totalWithdrawn += _amount;\n        address(uint256(msg.sender)).transfer(_amount);\n        users[msg.sender].referalAmount = 0;\n        users[msg.sender].incomeWithdrawn += _amount;\n        users[msg.sender].balanceReceived = 0;\n    }\n\n    function getReferals(address _account) public view returns (uint256) {\n        return users[_account].referals;\n    }\n\n    function getReferalsIncome(address _account) public view returns (uint256) {\n        return users[_account].referalAmount;\n    }\n\n    function getDailyAmount() public view returns (uint256) {\n        uint256 dailyAmount = 0;\n        for (uint256 i = activeUserId; i <= currUserId; i++) {\n            dailyAmount += getROI(users[userlist[i]].investment);\n        }\n        return dailyAmount;\n    }\n\n    function getROI(uint256 _amount) public pure returns (uint256) {\n        return (5 * _amount) / 100;\n    }\n    function getUserDailyIncome(address _account) public view returns (uint256) {\n        uint256 _amount = users[_account].investment;\n        return (5 * _amount) / 100;\n    }\n\n    function getTotalInvestment() public view returns(uint256){\n        return totalInvestment;\n    }\n    function getTotalWithdrawnAmount() public view returns (uint256) {\n        return totalWithdrawn;\n    }\n\n    function getIncomeWithdrawnToWallet(address _account) public view returns(uint256){\n        return users[_account].incomeWithdrawn;\n    }\n}\n",
  "sourcePath": "/home/neha/ROI/src/contracts/ROI.sol",
  "compiler": {
    "name": "solc",
    "version": "0.5.16+commit.9c3226ce.Emscripten.clang"
  },
  "schemaVersion": "3.1.0",
  "updatedAt": "2020-06-26T13:21:43.619Z",
  "networkType": "ethereum",
  "devdoc": {
    "methods": {}
  },
  "userdoc": {
    "methods": {}
  }
}