{
  "contractName": "ReturnOnInterest",
  "abi": [
    {
      "inputs": [],
      "payable": false,
      "stateMutability": "nonpayable",
      "type": "constructor"
    },
    {
      "constant": true,
      "inputs": [],
      "name": "currUserId",
      "outputs": [
        {
          "internalType": "uint256",
          "name": "",
          "type": "uint256"
        }
      ],
      "payable": false,
      "stateMutability": "view",
      "type": "function"
    },
    {
      "constant": true,
      "inputs": [],
      "name": "emd",
      "outputs": [
        {
          "internalType": "uint256",
          "name": "amount",
          "type": "uint256"
        },
        {
          "internalType": "uint256",
          "name": "expired",
          "type": "uint256"
        },
        {
          "internalType": "uint256",
          "name": "roi",
          "type": "uint256"
        }
      ],
      "payable": false,
      "stateMutability": "view",
      "type": "function"
    },
    {
      "constant": true,
      "inputs": [
        {
          "internalType": "uint256",
          "name": "",
          "type": "uint256"
        }
      ],
      "name": "noOfDays",
      "outputs": [
        {
          "internalType": "uint256",
          "name": "amount",
          "type": "uint256"
        },
        {
          "internalType": "uint256",
          "name": "expired",
          "type": "uint256"
        },
        {
          "internalType": "uint256",
          "name": "roi",
          "type": "uint256"
        }
      ],
      "payable": false,
      "stateMutability": "view",
      "type": "function"
    },
    {
      "constant": true,
      "inputs": [
        {
          "internalType": "uint256",
          "name": "",
          "type": "uint256"
        }
      ],
      "name": "userlist",
      "outputs": [
        {
          "internalType": "address",
          "name": "",
          "type": "address"
        }
      ],
      "payable": false,
      "stateMutability": "view",
      "type": "function"
    },
    {
      "constant": true,
      "inputs": [
        {
          "internalType": "address",
          "name": "",
          "type": "address"
        }
      ],
      "name": "users",
      "outputs": [
        {
          "internalType": "bool",
          "name": "isExist",
          "type": "bool"
        },
        {
          "internalType": "uint256",
          "name": "id",
          "type": "uint256"
        },
        {
          "internalType": "uint256",
          "name": "entryTime",
          "type": "uint256"
        },
        {
          "internalType": "uint256",
          "name": "investment",
          "type": "uint256"
        },
        {
          "internalType": "uint256",
          "name": "balanceReceived",
          "type": "uint256"
        },
        {
          "internalType": "uint256",
          "name": "expired",
          "type": "uint256"
        },
        {
          "internalType": "uint256",
          "name": "referals",
          "type": "uint256"
        }
      ],
      "payable": false,
      "stateMutability": "view",
      "type": "function"
    },
    {
      "constant": false,
      "inputs": [
        {
          "internalType": "uint256",
          "name": "_entryTime",
          "type": "uint256"
        }
      ],
      "name": "Enter",
      "outputs": [],
      "payable": true,
      "stateMutability": "payable",
      "type": "function"
    },
    {
      "constant": false,
      "inputs": [
        {
          "internalType": "uint256",
          "name": "_refererId",
          "type": "uint256"
        },
        {
          "internalType": "uint256",
          "name": "_entryTime",
          "type": "uint256"
        }
      ],
      "name": "enterThroughReferals",
      "outputs": [],
      "payable": true,
      "stateMutability": "payable",
      "type": "function"
    },
    {
      "constant": true,
      "inputs": [
        {
          "internalType": "uint256",
          "name": "_amount",
          "type": "uint256"
        }
      ],
      "name": "getExpiryDate",
      "outputs": [
        {
          "internalType": "uint256",
          "name": "",
          "type": "uint256"
        }
      ],
      "payable": false,
      "stateMutability": "view",
      "type": "function"
    },
    {
      "constant": true,
      "inputs": [
        {
          "internalType": "uint256",
          "name": "_amount",
          "type": "uint256"
        }
      ],
      "name": "getROI",
      "outputs": [
        {
          "internalType": "uint256",
          "name": "",
          "type": "uint256"
        }
      ],
      "payable": false,
      "stateMutability": "view",
      "type": "function"
    },
    {
      "constant": false,
      "inputs": [],
      "name": "sendROI",
      "outputs": [],
      "payable": false,
      "stateMutability": "nonpayable",
      "type": "function"
    },
    {
      "constant": true,
      "inputs": [
        {
          "internalType": "uint256",
          "name": "_id",
          "type": "uint256"
        }
      ],
      "name": "getUsersThroughList",
      "outputs": [
        {
          "internalType": "address",
          "name": "",
          "type": "address"
        }
      ],
      "payable": false,
      "stateMutability": "view",
      "type": "function"
    },
    {
      "constant": true,
      "inputs": [
        {
          "internalType": "address",
          "name": "_user",
          "type": "address"
        }
      ],
      "name": "getUsersThroughAddress",
      "outputs": [
        {
          "internalType": "uint256",
          "name": "id",
          "type": "uint256"
        },
        {
          "internalType": "uint256",
          "name": "investment",
          "type": "uint256"
        },
        {
          "internalType": "uint256",
          "name": "balanceReceived",
          "type": "uint256"
        },
        {
          "internalType": "uint256",
          "name": "referals",
          "type": "uint256"
        }
      ],
      "payable": false,
      "stateMutability": "view",
      "type": "function"
    },
    {
      "constant": true,
      "inputs": [],
      "name": "getCurrUserId",
      "outputs": [
        {
          "internalType": "uint256",
          "name": "",
          "type": "uint256"
        }
      ],
      "payable": false,
      "stateMutability": "view",
      "type": "function"
    }
  ],
  "bytecode": "0x60806040523480156200001157600080fd5b5060006001905062000022620004ae565b604051806060016040528067016345785d8a00008152602001602881526020016611c37937e0800081525090508060056000848152602001908152602001600020600082015181600001556020820151816001015560408201518160020155905050818060010192505062000096620004ae565b60405180606001604052806702c68af0bb140000815260200160328152602001662386f26fc100008152509050806005600085815260200190815260200160002060008201518160000155602082015181600101556040820151816002015590505082806001019350506200010a620004ae565b6040518060600160405280670429d069189e000081526020016032815260200166354a6ba7a180008152509050806005600086815260200190815260200160002060008201518160000155602082015181600101556040820151816002015590505083806001019450506200017e620004ae565b60405180606001604052806706f05b59d3b200008152602001603c81526020016658d15e17628000815250905080600560008781526020019081526020016000206000820151816000015560208201518160010155604082015181600201559050508480600101955050620001f2620004ae565b6040518060600160405280670de0b6b3a76400008152602001603c815260200166b1a2bc2ec5000081525090508060056000888152602001908152602001600020600082015181600001556020820151816001015560408201518160020155905050858060010196505062000266620004ae565b6040518060600160405280671bc16d674ec800008152602001603c815260200167016345785d8a0000815250905080600560008981526020019081526020016000206000820151816000015560208201518160010155604082015181600201559050508680600101975050620002db620004ae565b60405180606001604052806729a2241af62c00008152602001603c8152602001670214e8348c4f0000815250905080600560008a8152602001908152602001600020600082015181600001556020820151816001015560408201518160020155905050878060010198505062000350620004ae565b6040518060600160405280674563918244f400008152602001603c81526020016703782dace9d90000815250905080600560008b81526020019081526020016000206000820151816000015560208201518160010155604082015181600201559050508880600101995050620003c5620004ae565b6040518060600160405280678ac7230489e800008152602001603c81526020016706f05b59d3b20000815250905080600560008c815260200190815260200160002060008201518160000155602082015181600101556040820151816002015590505089806001019a50506200043a620004ae565b604051806060016040528067d02ab486cedc00008152602001603c8152602001670a688906bd8b0000815250905080600560008d81526020019081526020016000206000820151816000015560208201518160010155604082015181600201559050505050505050505050505050620004cf565b60405180606001604052806000815260200160008152602001600081525090565b61180080620004df6000396000f3fe6080604052600436106100c25760003560e01c80637a041be11161007f578063a87430ba11610059578063a87430ba1461031e578063b2229347146103b1578063d8e136e2146103dc578063f5780e2214610457576100c2565b80637a041be1146102405780638c8f6f591461026b578063914bea2e146102a3576100c2565b8063469a75bf146100c757806349df34c0146101165780634eeac8631461014457806361dc412f1461017d5780636833f200146101da5780636c835fd914610229575b600080fd5b3480156100d357600080fd5b50610100600480360360208110156100ea57600080fd5b81019080803590602001909291905050506104d1565b6040518082815260200191505060405180910390f35b6101426004803603602081101561012c57600080fd5b81019080803590602001909291905050506106af565b005b34801561015057600080fd5b50610159610950565b60405180848152602001838152602001828152602001935050505060405180910390f35b34801561018957600080fd5b506101b6600480360360208110156101a057600080fd5b8101908080359060200190929190505050610968565b60405180848152602001838152602001828152602001935050505060405180910390f35b3480156101e657600080fd5b50610213600480360360208110156101fd57600080fd5b8101908080359060200190929190505050610992565b6040518082815260200191505060405180910390f35b34801561023557600080fd5b5061023e610b70565b005b34801561024c57600080fd5b50610255610d15565b6040518082815260200191505060405180910390f35b6102a16004803603604081101561028157600080fd5b810190808035906020019092919080359060200190929190505050610d1e565b005b3480156102af57600080fd5b506102dc600480360360208110156102c657600080fd5b81019080803590602001909291905050506115a6565b604051808273ffffffffffffffffffffffffffffffffffffffff1673ffffffffffffffffffffffffffffffffffffffff16815260200191505060405180910390f35b34801561032a57600080fd5b5061036d6004803603602081101561034157600080fd5b81019080803573ffffffffffffffffffffffffffffffffffffffff1690602001909291905050506115e3565b604051808815151515815260200187815260200186815260200185815260200184815260200183815260200182815260200197505050505050505060405180910390f35b3480156103bd57600080fd5b506103c6611632565b6040518082815260200191505060405180910390f35b3480156103e857600080fd5b50610415600480360360208110156103ff57600080fd5b8101908080359060200190929190505050611638565b604051808273ffffffffffffffffffffffffffffffffffffffff1673ffffffffffffffffffffffffffffffffffffffff16815260200191505060405180910390f35b34801561046357600080fd5b506104a66004803603602081101561047a57600080fd5b81019080803573ffffffffffffffffffffffffffffffffffffffff16906020019092919050505061166b565b6040518085815260200184815260200183815260200182815260200194505050505060405180910390f35b600067016345785d8a00008214156105025760056000600181526020019081526020016000206002015490506106aa565b6702c68af0bb1400008214156105315760056000600281526020019081526020016000206002015490506106aa565b670429d069189e00008214156105605760056000600381526020019081526020016000206002015490506106aa565b6706f05b59d3b2000082141561058f5760056000600481526020019081526020016000206002015490506106aa565b670de0b6b3a76400008214156105be5760056000600581526020019081526020016000206002015490506106aa565b671bc16d674ec800008214156105ed5760056000600681526020019081526020016000206002015490506106aa565b6729a2241af62c000082141561061c5760056000600781526020019081526020016000206002015490506106aa565b674563918244f4000082141561064b5760056000600881526020019081526020016000206002015490506106aa565b678ac7230489e8000082141561067a5760056000600981526020019081526020016000206002015490506106aa565b67d02ab486cedc00008214156106a95760056000600a81526020019081526020016000206002015490506106aa565b5b919050565b60001515600460003373ffffffffffffffffffffffffffffffffffffffff1673ffffffffffffffffffffffffffffffffffffffff16815260200190815260200160002060000160009054906101000a900460ff16151514610778576040517f08c379a00000000000000000000000000000000000000000000000000000000081526004018080602001828103825260128152602001807f7573657220616c7265616479206578697374000000000000000000000000000081525060200191505060405180910390fd5b600034905067016345785d8a00008110156107fb576040517f08c379a00000000000000000000000000000000000000000000000000000000081526004018080602001828103825260148152602001807f496e73756666696369656e742062616c616e636500000000000000000000000081525060200191505060405180910390fd5b6001600080828254019250508190555061081361178c565b6040518060e0016040528060011515815260200160005481526020018481526020018381526020016000815260200161084b84610992565b850181526020016000815250905080600460003373ffffffffffffffffffffffffffffffffffffffff1673ffffffffffffffffffffffffffffffffffffffff16815260200190815260200160002060008201518160000160006101000a81548160ff0219169083151502179055506020820151816001015560408201518160020155606082015181600301556080820151816004015560a0820151816005015560c0820151816006015590505033600660008054815260200190815260200160002060006101000a81548173ffffffffffffffffffffffffffffffffffffffff021916908373ffffffffffffffffffffffffffffffffffffffff160217905550505050565b60018060000154908060010154908060020154905083565b60056020528060005260406000206000915090508060000154908060010154908060020154905083565b600067016345785d8a00008214156109c3576005600060018152602001908152602001600020600101549050610b6b565b6702c68af0bb1400008214156109f2576005600060028152602001908152602001600020600101549050610b6b565b670429d069189e0000821415610a21576005600060038152602001908152602001600020600101549050610b6b565b6706f05b59d3b20000821415610a50576005600060048152602001908152602001600020600101549050610b6b565b670de0b6b3a7640000821415610a7f576005600060058152602001908152602001600020600101549050610b6b565b671bc16d674ec80000821415610aae576005600060068152602001908152602001600020600101549050610b6b565b6729a2241af62c0000821415610add576005600060078152602001908152602001600020600101549050610b6b565b674563918244f40000821415610b0c576005600060088152602001908152602001600020600101549050610b6b565b678ac7230489e80000821415610b3b576005600060098152602001908152602001600020600101549050610b6b565b67d02ab486cedc0000821415610b6a5760056000600a8152602001908152602001600020600101549050610b6b565b5b919050565b6000600460003373ffffffffffffffffffffffffffffffffffffffff1673ffffffffffffffffffffffffffffffffffffffff1681526020019081526020016000206005015411610c28576040517f08c379a000000000000000000000000000000000000000000000000000000000815260040180806020018281038252601b8152602001807f796f75727320696e766573746d656e742069732065787069726564000000000081525060200191505060405180910390fd5b610c73600460003373ffffffffffffffffffffffffffffffffffffffff1673ffffffffffffffffffffffffffffffffffffffff168152602001908152602001600020600301546104d1565b600460003373ffffffffffffffffffffffffffffffffffffffff1673ffffffffffffffffffffffffffffffffffffffff168152602001908152602001600020600401600082825401925050819055506001600460003373ffffffffffffffffffffffffffffffffffffffff1673ffffffffffffffffffffffffffffffffffffffff16815260200190815260200160002060050160008282540392505081905550565b60008054905090565b60001515600460003373ffffffffffffffffffffffffffffffffffffffff1673ffffffffffffffffffffffffffffffffffffffff16815260200190815260200160002060000160009054906101000a900460ff16151514610de7576040517f08c379a00000000000000000000000000000000000000000000000000000000081526004018080602001828103825260128152602001807f7573657220616c7265616479206578697374000000000000000000000000000081525060200191505060405180910390fd5b6000349050600460006006600086815260200190815260200160002060009054906101000a900473ffffffffffffffffffffffffffffffffffffffff1673ffffffffffffffffffffffffffffffffffffffff1673ffffffffffffffffffffffffffffffffffffffff16815260200190815260200160002060000160009054906101000a900460ff16610ee1576040517f08c379a00000000000000000000000000000000000000000000000000000000081526004018080602001828103825260148152602001807f696e636f7272656374207265666572616c20696400000000000000000000000081525060200191505060405180910390fd5b67016345785d8a0000811015610f5f576040517f08c379a00000000000000000000000000000000000000000000000000000000081526004018080602001828103825260148152602001807f496e73756666696369656e742062616c616e636500000000000000000000000081525060200191505060405180910390fd5b60016000808282540192505081905550610f7761178c565b6040518060e00160405280600115158152602001600054815260200184815260200183815260200160008152602001610fb767016345785d8a0000610992565b850181526020016000815250905080600460003373ffffffffffffffffffffffffffffffffffffffff1673ffffffffffffffffffffffffffffffffffffffff16815260200190815260200160002060008201518160000160006101000a81548160ff0219169083151502179055506020820151816001015560408201518160020155606082015181600301556080820151816004015560a0820151816005015560c0820151816006015590505033600660008054815260200190815260200160002060006101000a81548173ffffffffffffffffffffffffffffffffffffffff021916908373ffffffffffffffffffffffffffffffffffffffff1602179055506000600460006006600088815260200190815260200160002060009054906101000a900473ffffffffffffffffffffffffffffffffffffffff1673ffffffffffffffffffffffffffffffffffffffff1673ffffffffffffffffffffffffffffffffffffffff16815260200190815260200160002060060154141561125b576006600085815260200190815260200160002060009054906101000a900473ffffffffffffffffffffffffffffffffffffffff1673ffffffffffffffffffffffffffffffffffffffff1673ffffffffffffffffffffffffffffffffffffffff166108fc6064600a8502816111a557fe5b049081150290604051600060405180830381858888f193505050501580156111d1573d6000803e3d6000fd5b506001600460006006600088815260200190815260200160002060009054906101000a900473ffffffffffffffffffffffffffffffffffffffff1673ffffffffffffffffffffffffffffffffffffffff1673ffffffffffffffffffffffffffffffffffffffff168152602001908152602001600020600601600082825401925050819055506115a0565b6001600460006006600088815260200190815260200160002060009054906101000a900473ffffffffffffffffffffffffffffffffffffffff1673ffffffffffffffffffffffffffffffffffffffff1673ffffffffffffffffffffffffffffffffffffffff1681526020019081526020016000206006015414156113ff576006600085815260200190815260200160002060009054906101000a900473ffffffffffffffffffffffffffffffffffffffff1673ffffffffffffffffffffffffffffffffffffffff1673ffffffffffffffffffffffffffffffffffffffff166108fc6064601485028161134957fe5b049081150290604051600060405180830381858888f19350505050158015611375573d6000803e3d6000fd5b506001600460006006600088815260200190815260200160002060009054906101000a900473ffffffffffffffffffffffffffffffffffffffff1673ffffffffffffffffffffffffffffffffffffffff1673ffffffffffffffffffffffffffffffffffffffff1681526020019081526020016000206006016000828254019250508190555061159f565b6002600460006006600088815260200190815260200160002060009054906101000a900473ffffffffffffffffffffffffffffffffffffffff1673ffffffffffffffffffffffffffffffffffffffff1673ffffffffffffffffffffffffffffffffffffffff168152602001908152602001600020600601541061159e576006600085815260200190815260200160002060009054906101000a900473ffffffffffffffffffffffffffffffffffffffff1673ffffffffffffffffffffffffffffffffffffffff1673ffffffffffffffffffffffffffffffffffffffff166108fc6064601e8502816114ec57fe5b049081150290604051600060405180830381858888f19350505050158015611518573d6000803e3d6000fd5b506001600460006006600088815260200190815260200160002060009054906101000a900473ffffffffffffffffffffffffffffffffffffffff1673ffffffffffffffffffffffffffffffffffffffff1673ffffffffffffffffffffffffffffffffffffffff168152602001908152602001600020600601600082825401925050819055505b5b5b50505050565b60006006600083815260200190815260200160002060009054906101000a900473ffffffffffffffffffffffffffffffffffffffff169050919050565b60046020528060005260406000206000915090508060000160009054906101000a900460ff16908060010154908060020154908060030154908060040154908060050154908060060154905087565b60005481565b60066020528060005260406000206000915054906101000a900473ffffffffffffffffffffffffffffffffffffffff1681565b600080600080600460008673ffffffffffffffffffffffffffffffffffffffff1673ffffffffffffffffffffffffffffffffffffffff16815260200190815260200160002060010154600460008773ffffffffffffffffffffffffffffffffffffffff1673ffffffffffffffffffffffffffffffffffffffff16815260200190815260200160002060030154600460008873ffffffffffffffffffffffffffffffffffffffff1673ffffffffffffffffffffffffffffffffffffffff16815260200190815260200160002060040154600460008973ffffffffffffffffffffffffffffffffffffffff1673ffffffffffffffffffffffffffffffffffffffff1681526020019081526020016000206006015493509350935093509193509193565b6040518060e00160405280600015158152602001600081526020016000815260200160008152602001600081526020016000815260200160008152509056fea265627a7a723158205c21294925d282c601ab113a9be0676ff40cfba3a853bfb216de208e12c2526a64736f6c63430005100032",
  "source": "// SPDX-License-Identifier:UNLICENSED\npragma solidity >=0.4.21 <0.7.0;\n\ncontract ReturnOnInterest {\n    uint256 public currUserId;\n    struct User {\n        bool isExist;\n        uint256 id;\n        uint256 entryTime;\n        uint256 investment;\n        uint256 balanceReceived;\n        uint256 expired;\n        uint256 referals;\n    }\n\n    struct EntryAmountAndDays {\n        uint256 amount;\n        uint256 expired;\n        uint256 roi;\n    }\n\n    EntryAmountAndDays public emd;\n    mapping(address => User) public users;\n    mapping(uint256 => EntryAmountAndDays) public noOfDays;\n    mapping(uint256 => address) public userlist;\n\n    constructor() public {\n        uint256 i = 1;\n        EntryAmountAndDays memory emd1 = EntryAmountAndDays({\n            amount: 0.1 ether,\n            expired: 40,\n            roi: (0.1 ether * 5) / 100\n        });\n        noOfDays[i] = emd1;\n        i++;\n        EntryAmountAndDays memory emd2 = EntryAmountAndDays({\n            amount: 0.2 ether,\n            expired: 50,\n            roi: (0.2 ether * 5) / 100\n        });\n        noOfDays[i] = emd2;\n        i++;\n        EntryAmountAndDays memory emd3 = EntryAmountAndDays({\n            amount: 0.3 ether,\n            expired: 50,\n            roi: (0.3 ether * 5) / 100\n        });\n        noOfDays[i] = emd3;\n        i++;\n        EntryAmountAndDays memory emd4 = EntryAmountAndDays({\n            amount: 0.5 ether,\n            expired: 60,\n            roi: (0.5 ether * 5) / 100\n        });\n        noOfDays[i] = emd4;\n        i++;\n        EntryAmountAndDays memory emd5 = EntryAmountAndDays({\n            amount: 1 ether,\n            expired: 60,\n            roi: (1 ether * 5) / 100\n        });\n        noOfDays[i] = emd5;\n        i++;\n        EntryAmountAndDays memory emd6 = EntryAmountAndDays({\n            amount: 2 ether,\n            expired: 60,\n            roi: (2 ether * 5) / 100\n        });\n        noOfDays[i] = emd6;\n        i++;\n        EntryAmountAndDays memory emd7 = EntryAmountAndDays({\n            amount: 3 ether,\n            expired: 60,\n            roi: (3 ether * 5) / 100\n        });\n        noOfDays[i] = emd7;\n        i++;\n        EntryAmountAndDays memory emd8 = EntryAmountAndDays({\n            amount: 5 ether,\n            expired: 60,\n            roi: (5 ether * 5) / 100\n        });\n        noOfDays[i] = emd8;\n        i++;\n        EntryAmountAndDays memory emd9 = EntryAmountAndDays({\n            amount: 10 ether,\n            expired: 60,\n            roi: (10 ether * 5) / 100\n        });\n        noOfDays[i] = emd9;\n        i++;\n        EntryAmountAndDays memory emd10 = EntryAmountAndDays({\n            amount: 15 ether,\n            expired: 60,\n            roi: (15 ether * 5) / 100\n        });\n        noOfDays[i] = emd10;\n    }\n\n    //enter by investing amount, get entryTime and expiry time through js\n    function Enter(uint256 _entryTime) public payable {\n        require(users[msg.sender].isExist == false, \"user already exist\");\n        uint256 _amount = msg.value;\n        require(_amount >= 0.1 ether, \"Insufficient balance\");\n        currUserId += 1;\n        User memory user = User({\n            isExist: true,\n            id: currUserId,\n            entryTime: _entryTime,\n            investment: _amount,\n            balanceReceived: 0,\n            expired: _entryTime + getExpiryDate(_amount),\n            referals: 0\n        });\n\n        users[msg.sender] = user;\n        userlist[currUserId] = msg.sender;\n    }\n\n    function enterThroughReferals(uint256 _refererId, uint256 _entryTime)\n        public\n        payable\n    {\n        require(users[msg.sender].isExist == false, \"user already exist\");\n        uint256 _amount = msg.value;\n        require(users[userlist[_refererId]].isExist, \"incorrect referal id\");\n        require(_amount >= 0.1 ether, \"Insufficient balance\");\n        currUserId += 1;\n        User memory user = User({\n            isExist: true,\n            id: currUserId,\n            entryTime: _entryTime,\n            investment: _amount,\n            balanceReceived: 0,\n            expired: _entryTime + getExpiryDate(0.1 ether),\n            referals: 0\n        });\n\n        users[msg.sender] = user;\n        userlist[currUserId] = msg.sender;\n\n        if (users[userlist[_refererId]].referals == 0) {\n            address(uint256(userlist[_refererId])).transfer(\n                (_amount * 10) / 100\n            );\n            users[userlist[_refererId]].referals += 1;\n        } else if (users[userlist[_refererId]].referals == 1) {\n            address(uint256(userlist[_refererId])).transfer(\n                (_amount * 20) / 100\n            );\n            users[userlist[_refererId]].referals += 1;\n        } else if (users[userlist[_refererId]].referals >= 2) {\n            address(uint256(userlist[_refererId])).transfer(\n                (_amount * 30) / 100\n            );\n            users[userlist[_refererId]].referals += 1;\n        }\n    }\n\n    function getExpiryDate(uint256 _amount) public view returns (uint256) {\n        if (_amount == 0.1 ether) {\n            return noOfDays[1].expired;\n        }\n        if (_amount == 0.2 ether) {\n            return noOfDays[2].expired;\n        }\n        if (_amount == 0.3 ether) {\n            return noOfDays[3].expired;\n        }\n        if (_amount == 0.5 ether) {\n            return noOfDays[4].expired;\n        }\n        if (_amount == 1 ether) {\n            return noOfDays[5].expired;\n        }\n        if (_amount == 2 ether) {\n            return noOfDays[6].expired;\n        }\n        if (_amount == 3 ether) {\n            return noOfDays[7].expired;\n        }\n        if (_amount == 5 ether) {\n            return noOfDays[8].expired;\n        }\n        if (_amount == 10 ether) {\n            return noOfDays[9].expired;\n        }\n        if (_amount == 15 ether) {\n            return noOfDays[10].expired;\n        }\n    }\n\n    function getROI(uint256 _amount) public view returns (uint256) {\n        if (_amount == 0.1 ether) {\n            return noOfDays[1].roi;\n        }\n        if (_amount == 0.2 ether) {\n            return noOfDays[2].roi;\n        }\n        if (_amount == 0.3 ether) {\n            return noOfDays[3].roi;\n        }\n        if (_amount == 0.5 ether) {\n            return noOfDays[4].roi;\n        }\n        if (_amount == 1 ether) {\n            return noOfDays[5].roi;\n        }\n        if (_amount == 2 ether) {\n            return noOfDays[6].roi;\n        }\n        if (_amount == 3 ether) {\n            return noOfDays[7].roi;\n        }\n        if (_amount == 5 ether) {\n            return noOfDays[8].roi;\n        }\n        if (_amount == 10 ether) {\n            return noOfDays[9].roi;\n        }\n        if (_amount == 15 ether) {\n            return noOfDays[10].roi;\n        }\n    }\n\n    function sendROI() public {\n        require(users[msg.sender].expired > 0, \"yours investment is expired\");\n        users[msg.sender].balanceReceived += getROI(\n            users[msg.sender].investment\n        );\n        users[msg.sender].expired -= 1;\n    }\n\n    function getUsersThroughList(uint256 _id) public view returns (address) {\n        return userlist[_id];\n    }\n\n    function getUsersThroughAddress(address _user)\n        public\n        view\n        returns (\n            uint256 id,\n            uint256 investment,\n            uint256 balanceReceived,\n            uint256 referals\n        )\n    {\n        return (\n            users[_user].id,\n            users[_user].investment,\n            users[_user].balanceReceived,\n            users[_user].referals\n        );\n    }\n\n    function getCurrUserId()\n    public\n    view\n    returns (uint256) {\n        return currUserId;\n    }\n}\n",
  "sourcePath": "/home/neha/ROI/src/contracts/ROI.sol",
  "compiler": {
    "name": "solc",
    "version": "0.5.16+commit.9c3226ce.Emscripten.clang"
  },
  "schemaVersion": "3.1.0",
  "updatedAt": "2020-06-24T11:40:36.675Z",
  "networkType": "ethereum",
  "devdoc": {
    "methods": {}
  },
  "userdoc": {
    "methods": {}
  }
}